S00A000071312E7372656378
S11300000C9434000C9461000C9451000C94510035
S11300100C9451000C9451000C9451000C94510018
S11300200C9451000C9451000C9451000C94510008
S11300300C9451000C9451000C9451000C945100F8
S11300400C9451000C9451000C9451000C945100E8
S11300500C9451000C9451000C9451000C945100D8
S11300600C9451000C94510011241FBECFEFD8E022
S1130070DEBFCDBF11E0A0E0B1E0EEE6F1E002C0EA
S113008005900D92AA30B107D9F721E0AAE0B1E0BA
S113009001C01D92AA30B207E1F70E9480000C94BF
S11300A0B5000C94000087B18F6087B914B8089527
S11300B05298E89AE9E6F0E080818260808378943F
S11300C008951F920F920FB60F9211248F939F934E
S11300D08091080190910901019729F41092090176
S11300E01092080106C081E090E09093090180938A
S11300F008019F918F910F900FBE0F901F9018953C
S11301000E945300C8E0D1E004E011E00E945800CE
S11301108091080190910901019781F4E4E0F1E0F4
S1130120819188B92FEF80E792E021508040904080
S1130130E1F700C00000EC17FD0791F7809108017A
S113014090910901892B11F7E0E0F1E0819188B9E0
S11301502FEF80E792E0215080409040E1F700C00B
S11101600000E017F10791F7D1CFF894FFCF1C
S10D016E0903060C090C0603010046
S9030000FC
